:0400000055EF00F0C8
:060008002482A8ED00F0C7
:100018002480D8CF0FF0E8CF10F0E0CF11F0FACF5E
:1000280012F0FBCF13F0E9CF14F0EACF15F0E1CFCF
:1000380016F0E2CF17F0D9CF18F0DACF19F0F3CFD6
:100048001AF0F4CF1BF0F6CF1CF0F7CF1DF0F8CF65
:100058001EF0F5CF1FF0F29EF28E1FC0F5FF1EC0F6
:10006800F8FF1DC0F7FF1CC0F6FF1BC0F4FF1AC045
:10007800F3FF19C0DAFF18C0D9FF17C0E2FF16C096
:10008800E1FF15C0EAFF14C0E9FF13C0FBFF12C06F
:10009800FAFF11C0E0FF10C0E8FF0FC0D8FF24909E
:1000A8001000ECEF00F0D388D38AD38C030ED31260
:1000B800D3A4FED7939E939C93828A9E8A9CD59EB6
:1000C800D58CD59AD596D550F80B0209D56ED08E19
:1000D800F28AF184F28EF28CD58EC70E236410D08A
:1000E8008AAE02D0010E01D0000EFF0A206E203227
:1000F80020328A5020187F0B20188A6E000E236E3B
:100108002150D8B481A202D0010E216E2150D8B45A
:10011800E4D74F0E2264E1D781A213D08AAC02D073
:10012800010E01D0000EFF0A206E203A204620461C
:100138008A502018BF0B20188A6E03D0000E226E3A
:10014800CCD7000E216EFAD70600FACF01F0FBCF0C
:1001580002F0E9CF03F0EACF04F0E1CF05F0E2CFF7
:1001680006F0D9CF07F0DACF08F0F3CF09F0F4CFD3
:100178000AF0F6CF0BF0F7CF0CF0F8CF0DF0F5CF73
:100188000EF0F29EF2A405D0232A2150D8A4222AE8
:10019800F294F28E0EC0F5FF0DC0F8FF0CC0F7FF09
:1001A8000BC0F6FF0AC0F4FF09C0F3FF08C0DAFF6E
:1001B80007C0D9FF06C0E2FF05C0E1FF04C0EAFF9F
:1001C80003C0E9FF02C0FBFF01C0FAFF249211003F
:1001D800236A226A216A24902492000157EF00F0D2
:020000040020DA
:08000000FFFFFFFFFFFFFFFF00
:020000040030CA
:0E000000FF08191EFF8185FF0FC00FE00F40A3
:00000001FF
